:10000000FD2B00308A000408840A82070034003483
:10001000013402340334043405340634073409341B
:100020000A340B340C340D340F34103411341234C0
:10003000143415341634183419341B341C341E345B
:100040001F342134223424342534273429342A34EB
:100050002C342E343034313433343534373439346D
:100060003B343D343F3441344334453448344A34DE
:100070004C344E3451345334553458345A345D343E
:1000800060346234653468346A346D347034733487
:10009000763479347C347F348234853489348C34BA
:1000A0008F34933496349A349E34A134A534A934D1
:1000B000AD34B134B534B934BD34C134C534CA34C7
:1000C000CE34D334D734DC34E134E634EB34F0349A
:0600D000F534FA34FF34A0
:1006380083120108080083168116051583128101AB
:1006480008008312A2006330A3000030A40022082F
:10065800013E84000120A000A1012008A500210876
:10066800A6004B2B2508260403193B2B3C2B442BB7
:100678000514FF30A5070318A60AFF30A607452B67
:100688000510FF30A3070318A40AFF30A4072308A6
:100698002404031D502B512B362B080083121F10E6
:1006A800F03083169F0599010730831299000510D1
:1006B80083160510851405151F2383120508B2013A
:1006C800B301A801AE01AF01F430A9000130AA00BE
:1006D8001C238312AD002D0828060319742B752BD3
:1006E8007D2B2D08A8006330B2000A30AE00003020
:1006F800AF00330825238312330832060319852BEC
:10070800862B972B3208330203188B2B8C2B8F2BBD
:100718000130B307972B330832020318942B952B1B
:10072800972B0130B3022E082F0403199C2B9D2B05
:10073800AE2BFF30AE070318AF0AFF30AF072E0805
:100748002F04031DA82BA92BAE2BB201F430A9004E
:100758000130AA00851CB12BB22B6C2B320803196F
:10076800B62BB72B6C2B29082A04031DBC2BBD2BD9
:10077800F52BAB01AC018312B00130080A3E2523EA
:1007880001308312B0071E303002031CCC2BCD2B56
:10079800C12BB1013108A70027071E3E25230130D0
:1007A8008312B10714303102031CDB2BDC2BCE2B58
:1007B8000130AB070318AC0A0030AC072C08803AAC
:1007C800DF0080305F02031DEB2B02302B02031C7D
:1007D800EE2BEF2BBF2B2C308312A9000130AA007F
:1007E8006C2BFF30A9070318AA0AFF30AA076C2B45
:0607F80000288301522BD2
:02400E009431EB
:00000001FF
